:020000040800F2
:100000000050002039040008770300087F0300082F
:10001000870300088F030008970300080000000012
:100020000000000000000000000000009F03000826
:10003000AB03000800000000B7030008C30300087A
:10004000810400088104000881040008810400087C
:10005000810400088104000881040008810400086C
:10006000810400088104000881040008810400085C
:10007000810400088104000881040008810400084C
:10008000810400088104000881040008810400083C
:10009000810400088104000881040008810400082C
:1000A000810400088104000881040008810400081C
:1000B000810400088104000881040008810400080C
:1000C00081040008810400088104000881040008FC
:1000D00081040008810400088104000881040008EC
:1000E0008104000881040008810400080000000069
:1000F0000000000000000000000000000000000000
:0C01000000000000000000005FF808F1A3
:10010C0010B5054C237833B9044B13B10448AFF345
:10011C0000800123237010BD0400002000000000AB
:10012C00F004000808B5034B1BB103490348AFF3B7
:10013C00008008BD0000000008000020F00400084A
:10014C0080B500AF00F042F800F054F800F086F8EB
:10015C0000F098F800F0C2F800F0F4F84FF080438B
:10016C001B6903F00103002B11D0164B1B6803F025
:10017C000103002B0BD14FF0804300221A61124B6C
:10018C0080221A610F4B1B6801330E4A13604FF02B
:10019C0080431B6903F00103002BDFD0094B1B6864
:1001AC0003F00103002BD9D04FF0804300221A61D9
:1001BC00054B4FF400021A61024B1B680133014AD4
:1001CC001360CBE7200000200008014080B400AF92
:1001DC00074B12221A6000BF054B1B6803F020036B
:1001EC00002BF9D000BF00BFBD4680BC704700BFDC
:1001FC000020024080B400AF144B5A681349144BD2
:10020C0013434B60114B134A1A6000BF0F4B5B68D2
:10021C0003F00203002BF9D000BF0C4B1B6803F05A
:10022C000073002BF9D000BF084B1B6803F400339C
:10023C00002BF9D0054B40F63D029A61034B064A60
:10024C00DA6100BFBD4680BC704700BF00100240A1
:10025C0002841D00000001010108041080B400AFED
:10026C00074B90221A6000BF054B5B6803F0040338
:10027C00002BF9D100BF00BFBD4680BC704700BF4A
:10028C000070004080B400AF0B4B0C4A1A600A4B54
:10029C000B4A5A600B4B4FF088321A60094B0A4AD2
:1002AC005A600A4B0A4A5A600A4B0B4A1A6000BF42
:1002BC00BD4680BC704700BF000801408888881884
:1002CC0099888888000C0140888898890010014022
:1002DC0044448488001401408844444480B400AFF2
:1002EC00174B00229A62164B40F27B62DA62144B77
:1002FC00C0221A60124B20225A60114B00229A60C5
:10030C000F4B46F260029A610D4B40F23E325A633B
:10031C000B4B40F23E329A63094B55221A62084B42
:10032C0044F286025A64064B1B68054A43F00103EB
:10033C001360034B01221A6300BFBD4680BC70479B
:10034C00002C014080B400AF4FF0804301229A6230
:10035C004FF0804348F23622DA624FF0804301229C
:10036C001A6000BFBD4680BC704780B400AF00BFB0
:10037C00FDE780B400AF00BFFDE780B400AF00BF65
:10038C00FDE780B400AF00BFFDE780B400AF00BF55
:10039C00FDE780B400AF00BFBD4680BC704780B4A1
:1003AC0000AF00BFBD4680BC704780B400AF00BF3B
:1003BC00BD4680BC704780B500AF00F05DF800BF53
:1003CC0080BD000080B400AF154B1B68144A43F08D
:1003DC0001031360124B5A681149124B13404B60C6
:1003EC000F4B1B680E4A23F0847323F48033136085
:1003FC000B4B1B680A4A23F480231360084B5B6881
:10040C00074A23F4FE035360054B4FF41F029A6016
:10041C00054B4FF000629A6000BFBD4680BC704730
:10042C00001002400000FFF800ED00E0002103E0A6
:10043C000B4B5B58435004310A480B4B42189A4201
:10044C00F6D30A4A02E0002342F8043B084B9A42D6
:10045C00F9D3FFF7B7FF00F021F8FFF771FE7047F3
:10046C0010050008000000200400002004000020FB
:10047C0028000020FEE7000080B400AF054B1B787D
:10048C001A46054B1B681344034A136000BFBD4654
:10049C0080BC7047000000202400002070B50026AE
:1004AC000C4D0D4C641BA410A64209D100F01AF897
:1004BC0000260A4D0A4C641BA410A64205D170BD3F
:1004CC0055F8043B98470136EEE755F8043B98473E
:1004DC000136F2E7080500080805000808050008C1
:1004EC000C050008F8B500BFF8BC08BC9E46704768
:0C04FC00F8B500BFF8BC08BC9E46704775
:0405080031010008B5
:04050C000D010008D5
:0405100001000000E6
:0400000508000439B2
:00000001FF
